{
  "address": "0x62F535dD68b1336DBb1b723597c4e7780C84686B",
  "abi": [
    {
      "inputs": [
        {
          "internalType": "address",
          "name": "priceFeed",
          "type": "address"
        }
      ],
      "stateMutability": "nonpayable",
      "type": "constructor"
    },
    {
      "inputs": [],
      "name": "FundMe__NotOwner",
      "type": "error"
    },
    {
      "inputs": [],
      "name": "cheaperWithdraw",
      "outputs": [],
      "stateMutability": "payable",
      "type": "function"
    },
    {
      "inputs": [],
      "name": "fund",
      "outputs": [],
      "stateMutability": "payable",
      "type": "function"
    },
    {
      "inputs": [],
      "name": "getVersion",
      "outputs": [
        {
          "internalType": "uint256",
          "name": "",
          "type": "uint256"
        }
      ],
      "stateMutability": "view",
      "type": "function"
    },
    {
      "inputs": [
        {
          "internalType": "address",
          "name": "",
          "type": "address"
        }
      ],
      "name": "s_addressToAmountFunded",
      "outputs": [
        {
          "internalType": "uint256",
          "name": "",
          "type": "uint256"
        }
      ],
      "stateMutability": "view",
      "type": "function"
    },
    {
      "inputs": [
        {
          "internalType": "uint256",
          "name": "",
          "type": "uint256"
        }
      ],
      "name": "s_funders",
      "outputs": [
        {
          "internalType": "address",
          "name": "",
          "type": "address"
        }
      ],
      "stateMutability": "view",
      "type": "function"
    },
    {
      "inputs": [],
      "name": "s_owner",
      "outputs": [
        {
          "internalType": "address",
          "name": "",
          "type": "address"
        }
      ],
      "stateMutability": "view",
      "type": "function"
    },
    {
      "inputs": [],
      "name": "s_priceFeed",
      "outputs": [
        {
          "internalType": "contract AggregatorV3Interface",
          "name": "",
          "type": "address"
        }
      ],
      "stateMutability": "view",
      "type": "function"
    },
    {
      "inputs": [],
      "name": "withdraw",
      "outputs": [],
      "stateMutability": "payable",
      "type": "function"
    }
  ],
  "transactionHash": "0x18b03d0f80d310fb242a7721784ae8b76bc20d337cb0cd53291d972dbb1198f6",
  "args": [
    "0x694AA1769357215DE4FAC081bf1f309aDC325306"
  ],
  "numDeployments": 1,
  "solcInputHash": "bef3513c9f7bab6f30c89ed2c152bd12",
  "bytecode": "0x608060405234801561001057600080fd5b506040516200106e3803806200106e8339818101604052810190610034919061011f565b80600360006101000a81548173ffffffffffffffffffffffffffffffffffffffff021916908373ffffffffffffffffffffffffffffffffffffffff16021790555033600260006101000a81548173ffffffffffffffffffffffffffffffffffffffff021916908373ffffffffffffffffffffffffffffffffffffffff1602179055505061014c565b600080fd5b600073ffffffffffffffffffffffffffffffffffffffff82169050919050565b60006100ec826100c1565b9050919050565b6100fc816100e1565b811461010757600080fd5b50565b600081519050610119816100f3565b92915050565b600060208284031215610135576101346100bc565b5b60006101438482850161010a565b91505092915050565b610f12806200015c6000396000f3fe60806040526004361061007b5760003560e01c806354861af71161004e57806354861af71461011d578063b60d42881461015a578063be2693f014610164578063e39782401461016e5761007b565b80630d8e6e2c146100805780630ec3b027146100ab5780631bf6132d146100d65780633ccfd60b14610113575b600080fd5b34801561008c57600080fd5b50610095610199565b6040516100a2919061095f565b60405180910390f35b3480156100b757600080fd5b506100c0610231565b6040516100cd91906109f9565b60405180910390f35b3480156100e257600080fd5b506100fd60048036038101906100f89190610a57565b610257565b60405161010a919061095f565b60405180910390f35b61011b61026f565b005b34801561012957600080fd5b50610144600480360381019061013f9190610ab0565b61044b565b6040516101519190610aec565b60405180910390f35b61016261048a565b005b61016c6105ca565b005b34801561017a57600080fd5b506101836107ac565b6040516101909190610aec565b60405180910390f35b6000600360009054906101000a900473ffffffffffffffffffffffffffffffffffffffff1673ffffffffffffffffffffffffffffffffffffffff166354fd4d506040518163ffffffff1660e01b8152600401602060405180830381865afa158015610208573d6000803e3d6000fd5b505050506040513d601f19601f8201168201806040525081019061022c9190610b1c565b905090565b600360009054906101000a900473ffffffffffffffffffffffffffffffffffffffff1681565b60006020528060005260406000206000915090505481565b600260009054906101000a900473ffffffffffffffffffffffffffffffffffffffff1673ffffffffffffffffffffffffffffffffffffffff163373ffffffffffffffffffffffffffffffffffffffff16146102f6576040517f579610db00000000000000000000000000000000000000000000000000000000815260040160405180910390fd5b3373ffffffffffffffffffffffffffffffffffffffff166108fc479081150290604051600060405180830381858888f1935050505015801561033c573d6000803e3d6000fd5b5060005b6001805490508110156103e85760006001828154811061036357610362610b49565b5b9060005260206000200160009054906101000a900473ffffffffffffffffffffffffffffffffffffffff16905060008060008373ffffffffffffffffffffffffffffffffffffffff1673ffffffffffffffffffffffffffffffffffffffff168152602001908152602001600020819055505080806103e090610ba7565b915050610340565b50600067ffffffffffffffff81111561040457610403610bef565b5b6040519080825280602002602001820160405280156104325781602001602082028036833780820191505090505b506001908051906020019061044892919061089f565b50565b6001818154811061045b57600080fd5b906000526020600020016000915054906101000a900473ffffffffffffffffffffffffffffffffffffffff1681565b60006802b5e3af16b18800009050806104ce600360009054906101000a900473ffffffffffffffffffffffffffffffffffffffff16346107d290919063ffffffff16565b101561050f576040517f08c379a000000000000000000000000000000000000000000000000000000000815260040161050690610c7b565b60405180910390fd5b346000803373ffffffffffffffffffffffffffffffffffffffff1673ffffffffffffffffffffffffffffffffffffffff168152602001908152602001600020600082825461055d9190610c9b565b925050819055506001339080600181540180825580915050600190039060005260206000200160009091909190916101000a81548173ffffffffffffffffffffffffffffffffffffffff021916908373ffffffffffffffffffffffffffffffffffffffff16021790555050565b600260009054906101000a900473ffffffffffffffffffffffffffffffffffffffff1673ffffffffffffffffffffffffffffffffffffffff163373ffffffffffffffffffffffffffffffffffffffff1614610651576040517f579610db00000000000000000000000000000000000000000000000000000000815260040160405180910390fd5b3373ffffffffffffffffffffffffffffffffffffffff166108fc479081150290604051600060405180830381858888f19350505050158015610697573d6000803e3d6000fd5b506000600180549050905060005b81811015610748576000600182815481106106c3576106c2610b49565b5b9060005260206000200160009054906101000a900473ffffffffffffffffffffffffffffffffffffffff16905060008060008373ffffffffffffffffffffffffffffffffffffffff1673ffffffffffffffffffffffffffffffffffffffff1681526020019081526020016000208190555050808061074090610ba7565b9150506106a5565b50600067ffffffffffffffff81111561076457610763610bef565b5b6040519080825280602002602001820160405280156107925781602001602082028036833780820191505090505b50600190805190602001906107a892919061089f565b5050565b600260009054906101000a900473ffffffffffffffffffffffffffffffffffffffff1681565b6000806107de8361080e565b90506000670de0b6b3a764000085836107f79190610ccf565b6108019190610d40565b9050809250505092915050565b6000808273ffffffffffffffffffffffffffffffffffffffff1663feaf968c6040518163ffffffff1660e01b815260040160a060405180830381865afa15801561085c573d6000803e3d6000fd5b505050506040513d601f19601f820116820180604052508101906108809190610de9565b5050509150506402540be400816108979190610e64565b915050919050565b828054828255906000526020600020908101928215610918579160200282015b828111156109175782518260006101000a81548173ffffffffffffffffffffffffffffffffffffffff021916908373ffffffffffffffffffffffffffffffffffffffff160217905550916020019190600101906108bf565b5b5090506109259190610929565b5090565b5b8082111561094257600081600090555060010161092a565b5090565b6000819050919050565b61095981610946565b82525050565b60006020820190506109746000830184610950565b92915050565b600073ffffffffffffffffffffffffffffffffffffffff82169050919050565b6000819050919050565b60006109bf6109ba6109b58461097a565b61099a565b61097a565b9050919050565b60006109d1826109a4565b9050919050565b60006109e3826109c6565b9050919050565b6109f3816109d8565b82525050565b6000602082019050610a0e60008301846109ea565b92915050565b600080fd5b6000610a248261097a565b9050919050565b610a3481610a19565b8114610a3f57600080fd5b50565b600081359050610a5181610a2b565b92915050565b600060208284031215610a6d57610a6c610a14565b5b6000610a7b84828501610a42565b91505092915050565b610a8d81610946565b8114610a9857600080fd5b50565b600081359050610aaa81610a84565b92915050565b600060208284031215610ac657610ac5610a14565b5b6000610ad484828501610a9b565b91505092915050565b610ae681610a19565b82525050565b6000602082019050610b016000830184610add565b92915050565b600081519050610b1681610a84565b92915050565b600060208284031215610b3257610b31610a14565b5b6000610b4084828501610b07565b91505092915050565b7f4e487b7100000000000000000000000000000000000000000000000000000000600052603260045260246000fd5b7f4e487b7100000000000000000000000000000000000000000000000000000000600052601160045260246000fd5b6000610bb282610946565b91507fffffffffffffffffffffffffffffffffffffffffffffffffffffffffffffffff8203610be457610be3610b78565b5b600182019050919050565b7f4e487b7100000000000000000000000000000000000000000000000000000000600052604160045260246000fd5b600082825260208201905092915050565b7f596f75206e65656420746f207370656e64206d6f726520455448210000000000600082015250565b6000610c65601b83610c1e565b9150610c7082610c2f565b602082019050919050565b60006020820190508181036000830152610c9481610c58565b9050919050565b6000610ca682610946565b9150610cb183610946565b9250828201905080821115610cc957610cc8610b78565b5b92915050565b6000610cda82610946565b9150610ce583610946565b9250828202610cf381610946565b91508282048414831517610d0a57610d09610b78565b5b5092915050565b7f4e487b7100000000000000000000000000000000000000000000000000000000600052601260045260246000fd5b6000610d4b82610946565b9150610d5683610946565b925082610d6657610d65610d11565b5b828204905092915050565b600069ffffffffffffffffffff82169050919050565b610d9081610d71565b8114610d9b57600080fd5b50565b600081519050610dad81610d87565b92915050565b6000819050919050565b610dc681610db3565b8114610dd157600080fd5b50565b600081519050610de381610dbd565b92915050565b600080600080600060a08688031215610e0557610e04610a14565b5b6000610e1388828901610d9e565b9550506020610e2488828901610dd4565b9450506040610e3588828901610b07565b9350506060610e4688828901610b07565b9250506080610e5788828901610d9e565b9150509295509295909350565b6000610e6f82610db3565b9150610e7a83610db3565b9250828202610e8881610db3565b91507f80000000000000000000000000000000000000000000000000000000000000008414600084121615610ec057610ebf610b78565b5b8282058414831517610ed557610ed4610b78565b5b509291505056fea26469706673582212204b8a19b9b53672b26573f64b042cee6f84a7e772749a9da8cbcbbe182f3fb35664736f6c63430008130033",
  "devdoc": {
    "kind": "dev",
    "methods": {},
    "version": 1
  },
  "userdoc": {
    "kind": "user",
    "methods": {},
    "version": 1
  },
  "storageLayout": {
    "storage": [
      {
        "astId": 58,
        "contract": "contracts/FundMe.sol:FundMe",
        "label": "s_addressToAmountFunded",
        "offset": 0,
        "slot": "0",
        "type": "t_mapping(t_address,t_uint256)"
      },
      {
        "astId": 61,
        "contract": "contracts/FundMe.sol:FundMe",
        "label": "s_funders",
        "offset": 0,
        "slot": "1",
        "type": "t_array(t_address)dyn_storage"
      },
      {
        "astId": 63,
        "contract": "contracts/FundMe.sol:FundMe",
        "label": "s_owner",
        "offset": 0,
        "slot": "2",
        "type": "t_address"
      },
      {
        "astId": 66,
        "contract": "contracts/FundMe.sol:FundMe",
        "label": "s_priceFeed",
        "offset": 0,
        "slot": "3",
        "type": "t_contract(AggregatorV3Interface)45"
      }
    ],
    "types": {
      "t_address": {
        "encoding": "inplace",
        "label": "address",
        "numberOfBytes": "20"
      },
      "t_array(t_address)dyn_storage": {
        "base": "t_address",
        "encoding": "dynamic_array",
        "label": "address[]",
        "numberOfBytes": "32"
      },
      "t_contract(AggregatorV3Interface)45": {
        "encoding": "inplace",
        "label": "contract AggregatorV3Interface",
        "numberOfBytes": "20"
      },
      "t_mapping(t_address,t_uint256)": {
        "encoding": "mapping",
        "key": "t_address",
        "label": "mapping(address => uint256)",
        "numberOfBytes": "32",
        "value": "t_uint256"
      },
      "t_uint256": {
        "encoding": "inplace",
        "label": "uint256",
        "numberOfBytes": "32"
      }
    }
  }
}